:020000040800F2
:10000000B0330020450100084D0100084F010008F1
:1000100051010008530100085501000800000000CC
:100020000000000000000000000000005701000870
:1000300059010008000000005B0100085D01000894
:100040005F0100085F0100085F0100085F01000810
:100050005F0100085F0100085F0100085F01000800
:10006000450E00085F0100085F0100085F010008FD
:100070005F0100085F0100085F0100085F010008E0
:100080005F0100085F0100085F0100085F010008D0
:100090005F0100085F0100085F0100085F010008C0
:1000A0005F0100085F0100085F0100085F010008B0
:1000B0005F0100085F0100085F0100085F010008A0
:1000C0005F0100085F0100085F0100085F01000890
:1000D0005F010008BD4000085F010008D94000082A
:1000E0005F0100085F0100085F0100085F01000870
:1000F0005F0100085F0100085F0100085F01000860
:100100005F0100085F0100085F0100085F0100084F
:100110005F0100085F0100086D4000085F010008F2
:100120005F0100085F0100085F0100085F0100082F
:10013000DFF80CD000F03AFC0048004729520008D4
:10014000B03300200648804706480047FEE7FEE738
:10015000FEE7FEE7FEE7FEE7FEE7FEE7FEE7FEE777
:100160000D4000083101000840EA01039B0703D05D
:1001700009E008C9121F08C0042AFAD203E011F8E6
:10018000013B00F8013B521EF9D27047D2B201E0A8
:1001900000F8012B491EFBD270470022F6E710B58C
:1001A00013460A4604461946FFF7F0FF204610BDE5
:1001B00030B505462A460B4612F8010B13F8014BE1
:1001C00008B1A042F8D01CB1002802D06D1CF1E7A4
:1001D000284630BDCAB2401E10F8011F8A4202D024
:1001E0000029F9D100207047421C10F8011B00299A
:1001F000FBD1801A704710B5044600E0401C03781C
:10020000002BFBD100E0401C521E04D311F8013B2F
:100210000370002BF7D100210170204610BD70B58E
:10022000064604F0DBF9046805460A220021304640
:1002300000F04EFA2C6070BD80EA010210B502F0A9
:100240000043400022D04A001FD0010E01EB126192
:10025000C0F35600C2F3560240F4000042F400021C
:10026000A0FB022000047F39140400D0401C50EA97
:10027000124001D44000491EC2B20C0604EBD0105B
:10028000401C4008802A02D003E0002010BD20F06E
:100290000100002900DA0020184310BD30B480EAC4
:1002A000010202F0004530F0004221F0004013D07E
:1002B00090B1C30DD40DC2F31601C0F31600E41AB9
:1002C00041F4000140F400027D34914201D3641CEA
:1002D00000E04900002C02DA30BC002070474FF4E7
:1002E00000000023914201D3891A034340084FEADA
:1002F0004101F7D151B1914202D14FF0004105E0E7
:1003000002D24FF0010101E06FF0010103EBC45094
:10031000284430BC00F014BA2DE9FE4F804681EA33
:100320000300C00F0C46009021F0004123F000456F
:10033000B8EB0200A94105D24046214690461C4632
:100340000B46024623F00040104347D0270DC7F369
:100350000A00C3F30A510290401A019040286BDA58
:10036000C3F3130040F4801B0098924620B1002391
:10037000D2EB030A63EB0B0B01985946C0F1400224
:10038000504600F074F906460D4650465946019A0B
:1003900000F08CF910EB08006141002487EA11524B
:1003A00084EAE7731A4340D0009A62B3019A012AA3
:1003B0004FEA075215DC001B61EB02014FF00042CF
:1003C00002EA0752CDE90042001C41F58011324695
:1003D0002B4600F0FBF903B0BDE8F08F4046214604
:1003E000F9E7001B61EB0201001C41F580130018C6
:1003F0005B412018A2F5001747EB030140EAD570D6
:10040000B6196D4111E06D084FEA360645EAC07530
:100410004FEA0752001B61EB0201001C41F58011FD
:1004200049084FEA30000019514132462B4603B0CB
:10043000BDE8F04F00F0BBB9009801224000002356
:10044000D0EB020263EBE073009821464FEAE074C0
:10045000B8EB000061EB0401E9E783F000435BE7E0
:1004600081F0004158E72DE9F04D81EA030404F0E2
:10047000004B21F0004514464FF0000A23F00041E4
:1004800050EA050220D054EA01021DD0C5F30A57F4
:100490000246C5F31303C1F31300C1F30A5640F437
:1004A000801543F48013A7EB0608101BD64608F20C
:1004B000FD3873EB050002D308F1010801E0921842
:1004C0005B41B8F1000F03DA00200146BDE8F08D72
:1004D00000204FF48011064684460EE0171B73EB94
:1004E000050705D3121B63EB050306434CEA010C19
:1004F00049084FEA300092185B4150EA0107EDD1FC
:1005000052EA030012D082EA040083EA050108439C
:1005100005D0101BAB4106D20122002306E00022C9
:100520004FF0004302E06FF0010253101AEB060097
:100530004CEB085110EB0A0041EB0B01BDE8F04D0C
:1005400000F035B996230022114600F002B90EB52D
:10055000C10F80EAE0700844CA07002140F233432B
:100560008DE80E000A460B4600F030F903B000BDDE
:1005700000F0004220F00040C10DC0F3160040F42E
:1005800000007F2901DA00207047962903DCC1F1C1
:100590009601C84001E096398840002AF4D04042D4
:1005A000704770B5C1F30A5201F000450024C1F351
:1005B000130140F2FF3341F480119A4201DA002026
:1005C00070BD40F233439A42A2F2334203DC5242FE
:1005D00000F05CF800E090402C43F1D0404270BD48
:1005E00030B50B46014600202022012409E021FA03
:1005F00002F59D4205D303FA02F5491B04FA02F500
:100600002844151EA2F10102F1DC30BD2DE9F05F96
:100610000546002092469B46884606468146402471
:100620001BE0284641464746224600F02FF8534635
:100630005A46C01A914110D311461846224600F07E
:1006400016F82D1A67EB01084F46224601200021BB
:1006500000F00DF817EB00094E41201EA4F1010433
:10066000DFDC484631462A464346BDE8F09F202A53
:1006700004DB203A00FA02F1002070479140C2F1F9
:10068000200320FA03F3194390407047202A04DB2B
:10069000203A21FA02F00021704721FA02F3D040FB
:1006A000C2F120029140084319467047202A06DB18
:1006B000CB17203A41FA02F043EAE07306E041FA30
:1006C00002F3D040C2F1200291400843194670471E
:1006D0002DE9F04791460F4680460446002614F85F
:1006E000015B2DB100F074F90068405DC007F6D1E0
:1006F0002B2D02D02D2D18D0641E4A463946204697
:1007000000F06AF927B13968A14201D1C7F8008029
:1007100071054FF002040BD54042002803DD03F0C1
:100720005DFF0460A007BDE8F08746F48066E4E75B
:100730000028F8DA03F052FF04606FF00040F2E79F
:100740000029A8BF7047401C490008BF20F00100E5
:10075000704710B4B0FA80FC00FA0CF050EA0104C3
:1007600004BF10BC704749B1CCF1200421FA04F455
:1007700011FA0CF118BF012121430843A3EB0C012E
:10078000CB1D4FEA00614FEA102042BF002010BC91
:10079000704700EBC35010440029A4BF10BC704741
:1007A000401C490008BF20F0010010BC704710B584
:1007B000141E73F1000408DA401C41F10001921884
:1007C0005B411A4301D120F0010010BD2DE9F04D2D
:1007D00092469B4611B1B1FA81F202E0B0FA80F282
:1007E00020329046FFF743FF04460F4640EA0A00D6
:1007F00041EA0B0153465A46084313D0114653EAC7
:10080000010019D0C8F140025046FFF73FFF0546EE
:100810000E46504659464246FFF729FF084305D089
:10082000012004E020463946BDE8F08D0020054354
:1008300046EAE0762C4337430A986305E40AA0EBC6
:1008400008000022FD0A44EA47540A3002D500207D
:100850000146E9E7010510196941DDE9084500197C
:100860006941BDE8F04DA2E72DE9FE4F81EA03049E
:1008700004F0004421F0004100944FF0000B23F0FD
:10088000004350EA01045ED052EA03045BD0C3F394
:100890000A54C1F30A552C44A4F2F3340194A0FB8A
:1008A0000254C1F3130141F48011C3F3130343F461
:1008B000801301FB024400FB034E840A970A44EABA
:1008C000815447EA8357A4FB076802958D0A05FB0C
:1008D00007854FEA932C04FB0C542705029D4FEA31
:1008E000065847EA1637B5EB08056EEB070C870E7E
:1008F000920E47EA811742EA8312A7FB0201B6EB88
:100900000B0164EB00042B0D43EA0C335E1844EB3F
:100910001C50DA465146E7FB0201C5F313044FEAC7
:100920000B3343EA14534FEA0432019C43EA0603B3
:10093000A4F10C040294009CCDE900B4FFF746FF3B
:1009400003B0BDE8F08F00200146F9E7C1F30A5279
:10095000C1F3130140F2FF3341F480119A4202DAED
:1009600000200146704740F233439A42A2F23342DC
:1009700002DC5242FFF78ABEFFF779BE30B5041E93
:1009800071F1000404DB4FF00044404264EB0101CC
:10099000141E73F1000405DB1C464FF00043524265
:1009A00063EB0403994208BF904230BD064C074DEB
:1009B00006E0E06840F0010394E80700984710342F
:1009C000AC42F6D3FFF7B8FBA0500508C0500508AD
:1009D00000487047145005082DE9F05F8246007802
:1009E000002715468B460AF10104B946302801D08C
:1009F0009DB113E014F8010B0127782803D0582883
:100A000001D045B10AE00DB1102D07D10027102506
:100A100014F8010B02E0082500E00A250026B04684
:100A20000EE005FB080005FB06F1012701EB10466F
:100A30001FFA80F8B6F5803F00D3B94614F8010BD1
:100A4000294600F018F80028EBDABBF1000F05D0BA
:100A50000FB1641E00E05446CBF80040B9F1000F1E
:100A600006D003F0BBFD02210160C81EBDE8F09F67
:100A700048EA0640FAE73A2800D2303820F020024F
:100A8000412A01D3A2F13700884201D34FF0FF3051
:100A9000704701B502E00098401E009000980028C1
:100AA000F9D108BD10B580210348FFF776FB00207F
:100AB0000249088010BD00002C2D00209E0000205F
:100AC00070B50546002400BF00F0A2F9C8B911A115
:100AD0001248FFF76DFB044624B911A1154803F035
:100AE00009FD0EE014A1134803F004FD3A2120464D
:100AF000FFF770FB044614B1641C204670BD002053
:100B0000FCE7052004F0EAF9681E85B2002DDBDC65
:100B10000020F3E74950442C000000002C2D002059
:100B20002249504422206E6F7420666F756E640DEA
:100B30000A0000000038014022495044222020666B
:100B40006F756E640D0A000038B5044601210C2053
:100B500002F00CFE0121880402F008FE10208DF83E
:100B600003000001ADF8000003208DF80200694683
:100B70003E4800F020FA4FF480713C4800F0B1FA92
:100B800000224FF40071394800F0ADFAFA2004F069
:100B9000A5F901225102354800F0A5FA4FF4FA7088
:100BA00004F09CF9FFF77EFF31A1334803F0A2FC6B
:100BB00003E04FF4FA7004F091F930A130A000F096
:100BC000D9F80028F5D130A12B4803F093FC03E0BD
:100BD0004FF4FA7004F082F92AA12EA000F0CAF8AE
:100BE0000028F5D103E04FF4FA7004F077F925A15D
:100BF0002BA000F0BFF80028F5D12DA11E4803F06E
:100C000079FC03E04FF4FA7004F068F91BA12BA003
:100C100000F0B0F80028F5D12CA1174803F06AFCC9
:100C200003E04FF4FA7004F059F914A12BA000F07E
:100C3000A1F80028F5D12DA10F4803F05BFC03E0DB
:100C40002DA10D4803F056FC0CA12FA000F092F846
:100C50000028F5D103E034A1074803F04BFC38A18C
:100C600039A000F087F80028F5D138BD000C01400C
:100C7000302E2041540D0A00003801404F4B000037
:100C800041540D0A00000000312E205253540D0A29
:100C90000000000041542B5253540D0A0000000084
:100CA00041542B434950434C4F53450D0A0000001B
:100CB000322E2043574D4F44450D0A0041542B43DB
:100CC000574D4F44453D310D0A000000332E204161
:100CD000542B4357444843500D0A000041542B43C2
:100CE00057444843503D312C310D0A00342E2043E7
:100CF000574A41500D0A0000352E204349505354A5
:100D00004152540D0A00000041542B43574A4150B0
:100D10003D226A696E6269222C22313233343536C3
:100D20003738220D0A000000362E20455350383245
:100D3000363620496E6974204F4B0D0A00000000C2
:100D4000434F4E4E4543540041542B434950535456
:100D50004152543D22544350222C2262726F6B65E3
:100D6000722E656D71782E696F222C313838330DF3
:100D70000A0000002DE9F04104460D4605262046F4
:100D8000FFF732FA87B23A4621460D4803F0D6FB08
:100D90000FE000F03DF848B929460A48FFF708FA85
:100DA00020B1FFF77FFE0020BDE8F0810A2004F0AB
:100DB00095F83000A6F10101CEB2EAD10120F3E7A7
:100DC000004800402C2D002030B589B004460D4667
:100DD000FFF768FE2A4608A101A803F0D9FB0AA183
:100DE00001A8FFF7C7FF20B92A462146074803F0AC
:100DF000A5FB09B030BD000041542B434950534579
:100E00004E443D25640D0A003E00000000480040AD
:100E10000A48008808B90120704708480088084936
:100E20000988884203D1002004490880F4E7034878
:100E30000088034908800120EEE700009E000020A2
:100E4000A000002010B5042000F014F840B10548BF
:100E5000006880F0200003490860042000F004F8D6
:100E600010BD00000C0C01400149086070470000F3
:100E700014040140014600200022074B1B6803EACE
:100E80000102054B14331B680B4013B10AB101205A
:100E900000E00020704700000004014051B18200D2
:100EA000A2F1C042126842F001038200A2F1C042E6
:100EB000136009E08200A2F1C0421268034B1A409D
:100EC0008300A3F1C0431A6070470000FEFF0F00CB
:100ED000D0E901121143C26811430269114342690A
:100EE000114382691143C2691143026A1143426A84
:100EF0001143826A1143C26A1143026B11430268B3
:100F00009200A2F1C0421160816808290BD10168EA
:100F10008900A1F1C041096841F0400201688900DF
:100F2000A1F1C0410A60416B0968426B526841EA15
:100F30000211426B926841EA0221426B928941EAB6
:100F40000241426B128A41EA0251426B127D41EA30
:100F50000261426B926911430268521C9200A2F135
:100F6000C0421160C16AB1F5804F1BD1816B096825
:100F7000826B526841EA0211826B926841EA022157
:100F8000826B128A41EA0251826B127D41EA026150
:100F9000826B9269114302689200A2F1C042C2F8CA
:100FA000041107E06FF0704201688900A1F1C041AF
:100FB000C1F8042170472DE9F041024600250026C2
:100FC000002000230024002791F803C00CF00F0537
:100FD00091F803C00CF0100CBCF1000F03D091F895
:100FE00002C04CEA050591F800C0BCF1000F31D0F9
:100FF000146800202BE04FF0010C0CFA00F3B1F85C
:1010000000C00CEA03069E4220D183004FF00F0C73
:101010000CFA03F7BC4305FA03FC4CEA040491F80C
:1010200003C0BCF1280F06D14FF0010C0CFA00FCF4
:10103000C2F814C00AE091F803C0BCF1480F05D112
:101040004FF0010C0CFA00FCC2F810C0401C08283C
:10105000D1D31460B1F800C0BCF1FF0F34DD546887
:1010600000202EE000F1080C4FF0010808FA0CF304
:10107000B1F800C00CEA03069E4221D183004FF074
:101080000F0C0CFA03F7BC4305FA03FC4CEA04040A
:1010900091F803C0BCF1280F05D100F1080C08FA43
:1010A0000CF8C2F8148091F803C0BCF1480F07D1C6
:1010B00000F1080C4FF0010808FA0CF8C2F8108093
:1010C000401C0828CED35460BDE8F08102460020C1
:1010D00093680B400BB1012000E000207047416194
:1010E0007047016170470AB1016100E041617047DA
:1010F0002DE9F04180460C461048007820B902F0F6
:10110000E3FB01200D4908702512E6B2A5F1A1010B
:10111000C1EB011202EB411106EB4101A1390802BA
:10112000C11700EB5171CF100548391820224046F5
:1011300002F0A2FB0020BDE8F08100004800002082
:101140000030180010B500F049F810BD10B502F0DD
:1011500009FF10BD10B54FF4A06001F043FF03F08C
:10116000ABFE4FF4E13003F0BFF84FF4E13003F091
:1011700013F9112208A10D4803F0E0F911220CA186
:10118000104803F0DBF94FF4E130FFF7DDFC0EA16E
:10119000064803F0AFF910BD48656C6C6F2C205504
:1011A0005341525431210D0A000000000038014023
:1011B00048656C6C6F2C20555341525433210D0AF5
:1011C00000000000004800402048617264776172AE
:1011D0006520696E6974204F4B0D0A002DE9F047B8
:1011E00086B000248F4FA046642420E08E4850F83B
:1011F0002410A4F164008C4A42F820108B4850F867
:101200002410A4F16400894A42F82010864850F85E
:101210002400B84202D2844850F82470824850F822
:101220002400404502D9804850F82480641CB4F55D
:10123000FA7FDBDB4FF4C874EDE0601E7A4951F8A9
:10124000205000BF7A4800680128FBD004A907207D
:1012500004F08FF89DF810008007800B9DF81110A6
:1012600040EA01209DF8121008436F4941F824001C
:101270009DF813008007800B9DF8141040EA0120B0
:101280009DF815100843694941F82400664850F854
:101290002400A8421DD9644951F82410481BFFF7C7
:1012A00051F98146A8EB0700FFF74CF982465146F9
:1012B0004846FEF7F3FF81465E494846FEF7BCFF0D
:1012C00081464846FFF754F9361A002E1EDA0026EA
:1012D0001CE0554951F82410681AFFF733F981468C
:1012E000A8EB0700FFF72EF9824651464846FEF765
:1012F000D5FF81464F494846FEF79EFF8146484646
:10130000FFF736F90644FF2E00DDFF26464850F869
:101310002410601E444A52F820000144A01E52F8D6
:10132000200008440321B0FBF1F0114641F82400ED
:101330003E4850F82410601E3C4A52F820000144F8
:10134000A01E52F8200008440321B0FBF1F0114622
:1013500041F8240038483949394A3A4BCDE900214F
:101360000290314A38480168304804F0B1F83348F7
:1013700000681E280BDB31480068DC2807DC314898
:101380000068462803DB2F480068642800DD41E040
:1013900029480078012834D129480078012830D123
:1013A00026480068B4282CDC24480068282828DB5C
:1013B00024480068642824DC22480068552820DB83
:1013C0001E4822A10268224803F0E2F821A250211F
:1013D000142000F0EDFA1E4A50213C2000F0AEFA35
:1013E00018481AA102681D4803F0D2F81CA2642113
:1013F000142000F0DDFA194A64213C2000F09EFA26
:1014000007E0104803680D4817A10268214803F05F
:1014100071F800BF641CB4F5FA7FFFF60EAF06B09A
:10142000BDE8F087FFFF03005C2500208C1D002035
:101430000801214200007F43880000208400002032
:10144000800000207C00002078000020256400003F
:1014500089000020D0C4C2CA3D0000008F000020D7
:10146000D1AAD1F53D000000496E76616C69642017
:1014700044617461202D204865617274205261744A
:10148000653A2025642C2053704F323A2025640A97
:10149000000000000038014010B500200F4908602E
:1014A0000F48006820F470000D4908600846006885
:1014B00040F44010086000200A49C1F8940102205D
:1014C00003F032FD012005490860022003F02CFDE5
:1014D00000200449C1F8B00110BD0000B0812142D4
:1014E000000C01400080214208B50121082002F0D3
:1014F0003DF94FF48150ADF8000014208DF8030041
:1015000003208DF8020069460448FFF754FD0120CE
:10151000034908600349C1F8940108BD000C01406B
:10152000B08121420080214210B500200F4908609F
:101530000F48006820F470000D49086008460068F4
:1015400040F44010086001200A49C1F894010220CB
:1015500003F0EAFC012005490860022003F0E4FCE6
:1015600000200449C1F8B00110BD0000B081214243
:10157000000C01400080214270B505460024174848
:10158000006820F47000154908600846006840F4BF
:1015900000000860002617E00020114908600220C2
:1015A00003F0C2FC01200F49C1F8B0016006040E2F
:1015B00020210A48FFF78AFD08B1601CC4B201204F
:1015C00003F0B2FC701CC6B2082EE5DB15B9FFF7BC
:1015D000ABFF01E0FFF760FF204670BD000C01404B
:1015E000B08121420080214270B504461548006850
:1015F00020F47000134908600846006840F4401069
:101600000860002010490860002517E0E0090E4935
:101610001C3908606006040E022003F085FC0120DE
:101620000A49C1F8B001022003F07EFC00200649FF
:101630000860022003F078FC681CC5B2082DE5DBC9
:1016400070BD0000000C0140B081214200802142A9
:1016500010B50F48006820F470000D490860084676
:10166000006840F44010086001200A4908600A49F7
:10167000C1F8B001042003F057FC002005490860C0
:10168000042003F051FC00200349C1F8B00110BD53
:10169000000C0140948121420080214210B50F4886
:1016A000006820F470000D4908600846006840F4A6
:1016B0004010086000200A4908600A49C1F89401F6
:1016C000042003F031FC0120054908600549C1F8F8
:1016D0009401042003F028FC10BD0000000C014020
:1016E000B08121420080214210B5002414480068D6
:1016F00020F47000124908600846006840F40000B9
:10170000086001200F49086003F00EFC01200E491B
:10171000C1F8B00103F008FC07E0601CC4B2FA2C69
:1017200003DDFFF7BBFF012010BD20210448FFF7B8
:10173000CDFC0028F1D103491C31086000BFF3E75C
:10174000000C0140948121420080214210B50446E2
:101750002CB14FF480510548FFF7C1FC04E04FF471
:1017600080510248FFF7BDFC10BD0000001401408D
:101770002DE9F04106460F4614461D462B462246EB
:101780003946304600F0EAFA04FB05F002490988C0
:1017900000F097F9BDE8F0812E0000202DE9F0411E
:1017A0000746884614461D462B4622464146384683
:1017B00000F0D4FA2C2000F02DFC002604E00548AF
:1017C000008800F02BFC761C04FB05F0B042F6D834
:1017D000BDE8F0812E00002001B502E00098401E17
:1017E000009000980028F9D108BD00002DE9F043D1
:1017F00089B080468946174610231A464946404616
:1018000000F0ACFA2C2000F005FC394601A8FFF7E7
:101810006FFC002422E001A810F814604FF6FF705E
:1018200000EA0626012000EB440001A9085C0643FB
:1018300000250FE04FF400402841304020B10A4815
:10184000008800F0EBFB03E00848008800F0E6FBAE
:10185000681CC5B2102DEDDB601CC4B2102CDADBA5
:1018600009B0BDE8F08300002C0000202E0000200D
:101870002DE9F84F06460F4690463346424622A1D0
:101880002A48009702F036FEA8F120001FFA80FADD
:10189000274909688988264A1268D28801FB02F024
:1018A000C11700EB5171C1F3C709214800680068F6
:1018B0000AFB090B1E480068C3881D48006882881F
:1018C0003946304600F04AFA2C2000F0A3FB0024F1
:1018D00016E0002510E01BF804108020284101408C
:1018E00021B11448008800F099FB03E012480088F9
:1018F00000F094FB681CC5B2082DECDB601CC4B280
:101900004C45E6DBBDE8F88F446973706C61792063
:10191000436861723A20256320617420583A20257B
:10192000642C20593A2025640A0000000038014048
:10193000280000202C0000202E00002070B5054655
:101940000E4614461423642231462846FFF726FF2C
:1019500024E02846134909688988084412490988FF
:10196000884205DD00250F480068C088304486B2F3
:1019700030460C490968C98808440C4909888842DE
:1019800001DD00250026227831462846FFF770FF4A
:10199000641C044800688088284485B220780028A8
:1019A000D7D170BD28000020200000202200002098
:1019B0002DE9F04105460E46144648E020787E2881
:1019C00025DC284624490968898808442349098870
:1019D000884205DD002520480068C088304486B272
:1019E00030461D490968C98808441D49098888424C
:1019F00001DD00250026227831462846FFF738FF12
:101A0000154800688088284485B2641C1FE0284679
:101A1000103012490988884203DD002506F11000C4
:101A200086B2304610300E490988884201DD002513
:101A300000262788380200EB272087B23A46314635
:101A40002846FFF7D3FE05F1100085B2A41C2078CC
:101A50000028B3D1BDE8F08128000020200000203C
:101A60002200002000B597B00121080201F05EFEBF
:101A7000012001900420039080060790002002902E
:101A80000490059006900890099008200A90102074
:101A90000B9000200C900E900F9010904FF48050FF
:101AA0001190002012901390149001A81590169098
:101AB00008A8FFF70DFA01210020FFF7EFF917B092
:101AC00000BD70B504460D4600262C2000F0A2FA99
:101AD00000BF03E0284600F0A1FA761CA642F9D325
:101AE00070BD000008B50121602001F03FFE032019
:101AF0008DF8020018208DF803004FF48040ADF8F7
:101B0000000069465B48FFF756FA4FF40040ADF815
:101B1000000069465748FFF74EFA0120ADF8000073
:101B200069465448FFF747FA0220ADF800006946BD
:101B30005048FFF740FA8020ADF8000069464E4853
:101B4000FFF739FA4FF48070ADF8000069464A4853
:101B5000FFF731FA4FF40070ADF8000069464648CF
:101B6000FFF729FA4FF48060ADF80000694642485B
:101B7000FFF721FA4FF40060ADF8000069463E48D7
:101B8000FFF719FA4FF48050ADF8000069463A4863
:101B9000FFF711FA4FF40050ADF8000069463648DF
:101BA000FFF709FA4FF48040ADF80000694632486B
:101BB000FFF701FA4FF40040ADF8000069462E48E7
:101BC000FFF7F9F94FF48070ADF800006946294835
:101BD000FFF7F1F94FF40070ADF8000069462548B1
:101BE000FFF7E9F94FF48060ADF80000694621483D
:101BF000FFF7E1F903208DF8020018208DF80300AB
:101C00001020ADF8000069461A48FFF7D4F92020EB
:101C1000ADF8000069461748FFF7CDF98020ADF810
:101C2000000069461348FFF7C6F94FF40060ADF8AD
:101C3000000069460F48FFF7BEF910208DF8030039
:101C400003208DF802000220ADF8000069460A4822
:101C5000FFF7B1F910208DF8030003208DF8020082
:101C60004FF48050ADF8000069460248FFF7A3F931
:101C700008BD0000001401400018014010B50446E2
:101C8000072C00DD10BD28480470204604EBD071FD
:101C90004910A4EB410139B9F020244908804FF4E0
:101CA000A0702349088006E04FF4A0701F49088007
:101CB000F0201F490880362000F0ACF9082141EAE5
:101CC000441000F0ABF92A2000F0A4F9002000F045
:101CD000A5F9002000F0A2F914490988491EC1F3B2
:101CE000072000F09BF911490978491EC8B200F09D
:101CF00095F92B2000F08EF9002000F08FF90020DC
:101D000000F08CF90A490988491EC1F3072000F048
:101D100085F907490978491EC8B200F07FF92C20DF
:101D200000F078F900BFADE724000020200000207B
:101D30002200002010B5FFF7D5FEFFF793FE01202B
:101D4000FFF704FD00F052F900F038F8024800787F
:101D5000FFF794FF10BD0000240000202DE9F041A2
:101D600004460D4616461F462A2000F053F920125D
:101D700000F054F9E0B200F051F9A119491EC1F385
:101D80000F2000F04BF9A119491EC8B200F046F926
:101D90002B2000F03FF9281200F040F9E8B200F0E3
:101DA0003DF9E919491EC1F30F2000F037F9E9198F
:101DB000491EC8B200F032F9BDE8F08110B5CF205D
:101DC00000F028F9002000F029F9812000F026F920
:101DD000302000F023F9ED2000F01CF9642000F021
:101DE0001DF9032000F01AF9122000F017F98120E4
:101DF00000F014F9E82000F00DF9852000F00EF94C
:101E0000102000F00BF9782000F008F9CB2000F04A
:101E100001F9392000F002F92C2000F0FFF8002031
:101E200000F0FCF8342000F0F9F8022000F0F6F899
:101E3000F72000F0EFF8202000F0F0F8EA2000F0A2
:101E4000E9F8002000F0EAF8002000F0E7F8B120FF
:101E500000F0E0F8002000F0E1F81B2000F0DEF8D0
:101E6000B62000F0D7F80A2000F0D8F8A22000F041
:101E7000D5F8C02000F0CEF8352000F0CFF8C12012
:101E800000F0C8F8112000F0C9F8C52000F0C2F831
:101E9000452000F0C3F8452000F0C0F8C72000F04E
:101EA000B9F8A22000F0BAF8F22000F0B3F8002050
:101EB00000F0B4F8262000F0ADF8012000F0AEF8F4
:101EC000E02000F0A7F80F2000F0A8F8262000F08E
:101ED000A5F8242000F0A2F80B2000F09FF80E20B7
:101EE00000F09CF8092000F099F8542000F096F8D2
:101EF000A82000F093F8462000F090F80C2000F0A5
:101F00008DF8172000F08AF8092000F087F80F20DC
:101F100000F084F8072000F081F8002000F07EF83F
:101F2000E12000F077F8002000F078F8192000F0A8
:101F300075F81B2000F072F8042000F06FF81020F4
:101F400000F06CF8072000F069F82A2000F066F82D
:101F5000472000F063F8392000F060F8032000F01B
:101F60005DF8062000F05AF8062000F057F83020FF
:101F700000F054F8382000F051F80F2000F04EF82F
:101F8000362000F047F8C82000F048F82A2000F07A
:101F900041F8002000F042F8002000F03FF8002057
:101FA00000F03CF8EF2000F039F82B2000F032F878
:101FB000002000F033F8002000F030F8012000F09D
:101FC0002DF83F2000F02AF83A2000F023F85520A1
:101FD00000F024F8112000F01DF80348FFF7FCFB87
:101FE000292000F017F810BDFCBF020010B5022137
:101FF0000748FFF774F840F6FF20FFF7EDFB0221DA
:102000000348FFF76EF840F6FF20FFF7E5FB10BD31
:10201000001801404FF0C041088070470149088016
:10202000704700000000026010B502F045FF4FF459
:102030007A7002F053FFFFF77DFE03F007F8FFF719
:1020400053FA00F029F800F039F903F0D3F910BD84
:102050002DE9F05F82468B4615461E460A9F0024F6
:1020600033462A4659465046FFF778FE2C20FFF7A4
:10207000D1FF00BF0AE017F8149007EB440090F876
:10208000018049EA0820FFF7C9FF641C05FB06F040
:10209000A042F0D8BDE8F09F08B50121082001F06A
:1020A00065FB2020ADF8000010208DF80300032010
:1020B0008DF8020069460F48FEF77DFF0120ADF85C
:1020C000000069460B48FEF776FF0220ADF80000DD
:1020D00069460848FEF76FFF20210648FFF701F820
:1020E00001210448FEF7FDFF02210248FEF7F9FF37
:1020F00008BD0000000C01401CB5044606226946DC
:102100003B2000F0FFF89DF801009DF8001040EA28
:10211000012000B220809DF803009DF8021040EAE3
:10212000012000B260809DF805009DF8041040EA8F
:10213000012000B2A0801CBD1CB5044606226946E1
:10214000432000F0DFF89DF801009DF8001040EA00
:10215000012000B220809DF803009DF8021040EAA3
:10216000012000B260809DF805009DF8041040EA4F
:10217000012000B2A0801CBD10B501460020B1F9BD
:1021800000204B4B1B6803EB43034A4C44F82320CD
:10219000B1F90220464B1B6803EB430304EB8303B6
:1021A0005A60B1F90420424B1B6803EB430304EB74
:1021B00083039A6000EB4002234653F8222000EB91
:1021C000400304EB83035B689A421ADB00EB400296
:1021D000234653F8222000EB400304EB83039B6863
:1021E0009A420EDB00EB4002234653F8222042F2D3
:1021F00028339A4258DD304A1268521C2E4B1A601E
:1022000052E000EB40022B4B03EB8202526800EBE2
:102210004003284C54F823309A421CDB00EB400268
:10222000234603EB8202526800EB400304EB830376
:102230009B689A420FDB00EB4002234603EB8202CD
:10224000526842F228339A422EDD1B4A1268521C11
:10225000194B1A6028E000EB4002164B03EB820298
:10226000926800EB4003134C04EB83035B689A42D3
:102270001ADB00EB4002234603EB8202926800EB7C
:10228000400354F823309A420EDB00EB4002234611
:1022900003EB8202926842F228339A4204DD064A36
:1022A0001268521C044B1A600022014B1A6010BDC8
:1022B00098000020DC1800207000002070B5002479
:1022C000002500BF06E0002500E06D1CB5F57A7F13
:1022D000FBDB641CB4F57A7FF5DB00216B2000F09A
:1022E00069F80721192000F065F806211A2000F08E
:1022F00061F800211C2000F05DF818211B2000F07F
:1023000059F870BD2DE9F04107460C46154602F01C
:1023100021FFD02002F0F2FE02F044FF384602F026
:10232000EDFE02F03FFF02F015FFD12002F0E6FEC5
:1023300002F038FF002606E0012002F0B5FE207012
:10234000641C701CC6B2681EB042F5DC002002F0AE
:10235000ABFE207002F016FFBDE8F0812DE9F84FCA
:102360008246022269464120FFF7CCFF9DF801001A
:102370009DF8001040EA01200FFA80FB43F29030F4
:102380005844FEF7E4F880460022084BFEF76BF84D
:1023900006460022064BFEF760F80446FEF701F9F8
:1023A00000B2AAF80000BDE8F88F0000008071407C
:1023B00000002A4070B505460C4602F0CBFED02046
:1023C00002F09CFE02F0EEFE284602F097FE02F0BC
:1023D000E9FE204602F092FE02F0E4FE02F0D2FE98
:1023E00070BD10B50446207B012802D1206802F0A0
:1023F000CBFD002020606060A060207310BD02460D
:10240000002301230DE002F07F000870D2092AB1F9
:10241000087840F080000870491C01E018467047B9
:102420005B1C042BEFDD4FF0FF30F8E770B504467E
:102430000E460025206898B901202073304602F02E
:1024400017FF20602068E0B100206060A66003E014
:102450000020216848556D1CA068A842F8D810E0FB
:102460000220207303E00020216848556D1CA068FD
:10247000A842F8D800206060A068B04201D20020D5
:10248000206070BD2DE9FF5F07460D469046384637
:10249000FDF7AAFE86B22846FDF7A6FE1FFA80FACF
:1024A0004FF00009F01D02F0E3FE04461CB90120C4
:1024B00004B0BDE8F09FF11D2046FDF76EFE12A0AE
:1024C000016821608088A080324639462046FDF7A9
:1024D00092FE2846FDF788FE8346012000210091E8
:1024E0005B462A46CDE90208019121460A2000F008
:1024F0005FF910B94FF0000901E04FF001092046E3
:1025000002F042FD4846D3E724637273702F000047
:102510002DE9FF4F83B082468B469146159C0025DE
:10252000002002900F2701904846FDF75DFE0FFA4C
:1025300080F8B9F1000F03D1012007B0BDE8F08F9A
:1025400008F10200384487B2109808B145F002053E
:10255000129878B145F004051298FDF745FEC0B217
:1025600002901398FDF740FE01460298001D0844B2
:10257000384487B2119820B1012804D0022808D12C
:1025800004E000BF07E045F00C0504E045F0140549
:1025900001E00220D1E700BF149808B145F02405FE
:1025A000BAF1000F02D0BBF1000F01D10320C4E744
:1025B00045F0C0055046FDF717FE06465846FDF7A4
:1025C00013FE3044001D384487B239462046FFF7D9
:1025D0002DFF206808B90420AFE739462068FDF7D1
:1025E000DCFD10216268501C606020688154D4E9D1
:1025F0000023D118781FFFF702FF00B20190019865
:10260000002804DA2046FFF7ECFE052095E7616814
:1026100001980844606000216268501C6060206876
:10262000815404216268501C6060206881544D21EF
:102630006268501C60602068815451216268501C9F
:1026400060602068815454216268501C606020687A
:1026500081546268501C6060206881540421626863
:10266000501C6060206881546168481C606020686C
:1026700045540698010A6268501C606020688154C5
:102680000698C1B26268501C606020688154C8F32B
:1026900007216268501C6060206881546268501C89
:1026A0006060206800F80280D4E900128818424671
:1026B0004946FDF7A0FD60684044606005F00400F5
:1026C000B8B30026139808B938A013901298FDF7F4
:1026D0008BFD86B2310A6268501C606020688154AC
:1026E0006268501C606020688654D4E90012881823
:1026F00032461299FDF77FFD6068304460601398A0
:10270000FDF772FD86B2310A6268501C6060206875
:1027100081546268501C606020688654D4E90012BD
:10272000881832461399FDF766FD60683044606092
:1027300000BF05F08000C8B15046FDF755FD86B2D8
:10274000310A6268501C6060206881546268501CC5
:10275000606020688654D4E90012881832465146D9
:10276000FDF749FD60683044606000BF05F040003F
:10277000C8B15846FDF738FD86B2310A6268501C70
:102780006060206881546268501C606020688654D4
:10279000D4E90012881832465946FDF72CFD6068CE
:1027A0003044606000BF0020C7E600000000000069
:1027B0002DE9FF4F83B0834617469946139C0025A9
:1027C00000260020029001908046BBF1000F03D14B
:1027D000012007B0BDE8F08F00260AE00498805D74
:1027E000232803D00498805D2B2801D10220F0E734
:1027F000761C0498805D0028F0D148F030081198CC
:1028000008B148F0010806EB0900851C109820B1BA
:10281000012804D002280AD105E000BF09E048F0F1
:102820000208AD1C05E048F00408AD1C01E00320DF
:10283000CFE700BF8FB33878022821D14FF0000ACC
:1028400000BF50460AF1010A385C7D28F9D1AAF18F
:10285000030A0AF1070002900298A9EB000AE81C9B
:10286000A0EB0A012046FFF7E1FD206808B904202B
:10287000AFE7EA1CA2EB0A012068FDF78EFC19E025
:10288000691D2046FFF7D2FD206808B90420A0E7A3
:10289000691D2068FDF781FC0CE0FFE7691D2046FB
:1028A000FFF7C4FD206808B9042092E7691D20687D
:1028B000FDF773FC6168481C6060206800F80180C7
:1028C000D4E9000281182846FFF799FD019001988C
:1028D000002804DA2046FFF784FD052079E76168C7
:1028E000019808446060C6F307216268501C60606C
:1028F000206881546268501C606020688654D4E966
:102900000012881832460499FDF775FC606830445F
:102910006060109860B14FEA1B216268501C6060D3
:10292000206881546268501C6060206800F802B022
:10293000C7B1387802280BD1D4E90012881839467B
:10294000029AFDF711FC616802980844606009E092
:10295000D4E9001288184A463946FDF705FC60683C
:1029600048446060002034E770B505460C460421F9
:102970002046FFF75BFD206808B9012070BD4021AB
:102980006268501C60602068815402216268501C9B
:1029900060602068815429126268501C6060206861
:1029A00081546268501C6060206885540020E5E70F
:1029B00070B505460C4604212046FFF737FD206818
:1029C00008B9012070BD70216268501C60602068E9
:1029D000815402216268501C606020688154291271
:1029E0006268501C6060206881546268501C60609E
:1029F000206885540020E5E770B505460C460421A3
:102A00002046FFF713FD206808B9012070BD502152
:102A10006268501C60602068815402216268501C0A
:102A200060602068815429126268501C60602068D0
:102A300081546268501C6060206885540020E5E77E
:102A400070B505460C4604212046FFF7EFFC2068D0
:102A500008B9012070BD62216268501C6060206866
:102A6000815402216268501C6060206881542912E0
:102A70006268501C6060206881546268501C60600D
:102A8000206885540020E5E72DE9FF5F8046174662
:102A900099460E9C0026B246B3460025B8F1000FB9
:102AA00003D1012004B0BDE8F09F0BE057F82500EA
:102AB00008B90220F6E757F82500FDF795FB064414
:102AC000681CC5B24D45F1DB09EB4900801C00EBE9
:102AD000060A0AF105012046FFF7A8FC206808B99C
:102AE0000320DFE782216268501C60602068815407
:102AF000D4E9000281185046FFF781FC0FFA80FBF1
:102B0000BBF1000F04DA2046FFF76BFC0420C9E795
:102B10006068584460604FEA18216268501C606029
:102B2000206881546268501C6060206800F8028050
:102B3000002524E057F82500FDF756FB0646C6F3AE
:102B400007216268501C6060206881546268501CD4
:102B5000606020688654D4E90023D01857F8251007
:102B60003246FDF748FB6068304460600198C1B2AE
:102B70006268501C606020688154681CC5B24D4575
:102B8000D8DB00208EE7F0B504460D46264601232B
:102B900000201060002114E0775C07F07F071068C8
:102BA00007FB03001060705C00F0800008B9481C4F
:102BB000F0BDDB01B3F5001F02D36FF00100F7E7B2
:102BC000491CA942E8DB4FF0FF30F1E72DE9F8435B
:102BD00080460C4615461E462F2108F10600FDF7DB
:102BE000F9FA07460020009017B90120BDE8F883E4
:102BF0007F1C6A46042108F10100FFF7C4FF25206D
:102C000002F036FB2060206808B90220EEE725219B
:102C10002068FDF7C2FA242239462068FDF7A4FA9D
:102C2000243700982C3830803188481C02F020FB73
:102C30002860286820B9206802F0A6F90320D5E7AB
:102C40003288511C2868FDF7A8FA3288394628686E
:102C5000FDF78AFA0020C9E701464878022801D02A
:102C600001207047887810B18878012801D1C87890
:102C7000F7E7FF20F5E700002DE9FC5F81460D46F0
:102C800014461E46DDE90C8B99F8000000F00F0A8F
:102C9000002001900AF008000090CAF341008BF870
:102CA000000001AA042109F10100FFF76CFF48446C
:102CB000471C0198022802D30AF0010010B1FF203E
:102CC000BDE8FC9F7878397840EA01202080208890
:102CD000801C0199884201D9FF20F1E754A1B81C5A
:102CE000FDF766FA08B10F20EAE79BF8000020B173
:102CF00001283DD0022877D13BE0009808B1FF20A1
:102D0000DEE72188481C02F0B3FA2860286808B979
:102D1000FF20D5E72288511C2868FDF73EFA22885B
:102D2000B91C2868FDF720FA0198801E2188401AF6
:102D3000A8F80000B8F80010481C02F099FA3060BA
:102D4000306820B9286802F01FF9FF20B8E7B8F80A
:102D50000020511C3068FDF720FAB8F80020B4F8C4
:102D600000C0BB1C0CEB03013068FDF7FDF94FE020
:102D700000BF2088801C0199884201D9FF209FE76D
:102D80002088C01C395C2088801C385C41EA002106
:102D90000E9801800E9808B9FF2091E72188481C01
:102DA00002F066FA2860286808B9FF2088E72288C0
:102DB000511C2868FDF7F1F92288B91C2868FDF735
:102DC000D3F90198001F2188401AA8F80000B8F82C
:102DD0000010481C02F04CFA3060306828B92868AE
:102DE00002F0D2F8FF206BE710E0B8F80020511C89
:102DF0003068FDF7D2F9B8F80020B4F800C03B1DE8
:102E00000CEB03013068FDF7AFF901E0FF2057E755
:102E100000BF2B212846FDF7DDF920B923212846E4
:102E2000FDF7D8F908B1FF204AE7002048E7000085
:102E3000246372657100000001464878022801D0C1
:102E400001207047887820B9C8780A2801D100206D
:102E5000F7E70120F5E701464878022801D0012074
:102E60007047887820B9C8780A2801D10020F7E790
:102E70000120F5E701464878022801D0012070477B
:102E8000887820B9C8780A2801D10020F7E7012006
:102E9000F5E702465078022801D00120704790786B
:102EA000B0EB112F05D1D078CBB2984201D10020E0
:102EB000F4E70120F2E70000F8B50446FF27207888
:102EC0000511012D01DB0E2D01DD3846F8BD032D66
:102ED00024D1002000906A460421601CFFF753FEB5
:102EE0002044461C0098022803D3207800F00100FB
:102EF00008B1FF20EAE77078317840EA0120801CB1
:102F00000099884201D9FF20E0E706A1B01CFDF737
:102F10004FF908B10F2700E0032700E02F4638469D
:102F2000D4E7000024637265710000000146FF20B1
:102F30008A78A2B9CA78142A11D10A7932B1012A41
:102F400005D0022A04D0802A06D103E000BF00BFCA
:102F5000002003E0012001E0022000BF00BF704715
:102F6000014601208A781AB9CA781E2A00D10020A9
:102F70007047000070B5002100230F22C47804B30D
:102F8000154C246804F4E064C4F5E064210AC1F13E
:102F90000403CA40447804FA03F1847814402143BE
:102FA00009010E4C0678A155047804F01F05012490
:102FB000AC4005786D11AD0005F1E025C5F8004184
:102FC00009E0047804F01F050124AC40044D0678A4
:102FD000761145F8264070BD0CED00E000E400E0FD
:102FE00080E100E002490143024A1160704700009D
:102FF0000000FA050CED00E030B58BB00020079022
:10300000089009900A90012532A0344B34A237A1D0
:103010000090424801F06EFA07A800210291039146
:10302000CDE9041000912B022AA201912B492CA07A
:10303000FFF76EFA002846D139A1384801F05AFA54
:10304000089A91B20798FDF7BFFEFA20FDF738FD08
:103050000446002C33D02046FFF72EFF02282ED145
:103060002046FFF7F9FD062823D2DFE800F0030928
:103070000E13181D2EA1294801F03CFA00251DE071
:1030800030A1264801F036FA18E035A1234801F0B6
:1030900031FA13E03BA1214801F02CFA0EE041A1E6
:1030A0001E4801F027FA09E047A11C4801F022FA66
:1030B00004E050A1194801F01DFA00BF00BF07A8A5
:1030C000FFF78FF903E052A1144801F013FA2846E4
:1030D0000BB030BD74657374303032002450050875
:1030E000395731516F457A704A7700004F6E654EFF
:1030F00065745F4465764C696E6B0D0A50524F499A
:10310000443A2025732C09415549463A2025732C11
:103110000944455649443A25730D0A0000380140D8
:10312000D3C3BBA7D0C5CFA2D5FDC8B70D0A000039
:10313000546970733A09C1ACBDD3B3C9B9A60D0ABD
:10314000000000005741524E3A09C1ACBDD3CAA796
:10315000B0DCA3BAD0ADD2E9B4EDCEF30D0A0000D5
:103160005741524E3A09C1ACBDD3CAA7B0DCA3BA8D
:10317000B7C7B7A8B5C4636C69656E7469640D0A96
:10318000000000005741524E3A09C1ACBDD3CAA756
:10319000B0DCA3BAB7FECEF1C6F7CAA7B0DC0D0A01
:1031A000000000005741524E3A09C1ACBDD3CAA736
:1031B000B0DCA3BAD3C3BBA7C3FBBBF2C3DCC2EB77
:1031C000B4EDCEF30D0A00005741524E3A09C1AC9E
:1031D000BDD3CAA7B0DCA3BAB7C7B7A8C1B4BDD323
:1031E00028B1C8C8E7746F6B656EB7C7B7A8290D5B
:1031F0000A0000004552523A09C1ACBDD3CAA7B07B
:10320000DCA3BACEB4D6AAB4EDCEF30D0A0000000A
:103210005741524E3A094D5154545F5061636B65AA
:1032200074436F6E6E656374204661696C65640DEE
:103230000A00000070B588B005460C4600200490D6
:1032400005900690079023462A4610A1174801F0E2
:1032500051F92046FCF7C8FF064604A801210022C8
:103260000223CDE90032CDE9021033462246294639
:103270000A20FFF79DFA38B9059A91B20498FDF734
:10328000A3FD04A8FFF7ADF808B070BD5075626CDF
:1032900069736820546F7069633A2025732C204D40
:1032A00073673A2025730D0A0000000000380140C2
:1032B0002DE9F04190B0074600200C900D900E9043
:1032C0000F900B900A900990089000260790002517
:1032D000002480463846FFF7EFFD0646F01E0D2815
:1032E00074D2DFE800F02B77809AB6DBBFDBCDDB52
:1032F000DBDB070008AB0BAA0AA93846FFF766FC20
:103300000546D5B9BDF8200000907DA18548DDE9CE
:103310000A2301F0EFF80CAADDE90A01FFF7B2F881
:1033200058B981A17F4801F0E5F80D9A91B20C9847
:10333000FDF74AFD0CA8FFF754F8B2E0804807A952
:1033400008AA0BABCDE90021029009AA0AA93846C8
:10335000FFF792FC0546002D3BD1BDF820000B99EC
:10336000CDE90010BDF8243076A16E480A9A01F02C
:10337000C1F89DF81C00012802D0022827D112E0D4
:103380000CA96F480088FFF7EFFA58B97CA165488F
:1033900001F0B0F80D9A91B20C98FDF715FD0CA84C
:1033A000FFF71FF814E00CA965480088FFF724FB1D
:1033B00058B979A15B4801F09DF80D9A91B20C982B
:1033C000FDF702FD0CA8FFF70CF801E066E000BF76
:1033D00000BF66E03846FFF72FFD18B974A15148C9
:1033E00001F088F85DE03846FFF744FDA0B978A108
:1033F0004C4801F07FF80CA90A20FFF721FB58B9CF
:1034000079A1484801F076F80D9A91B20C98FDF731
:10341000DBFC0CA8FEF7E5FF43E04948018838468D
:10342000FFF737FDA0B976A13E4801F063F80CA97B
:103430000A20FFF7BDFA58B977A13A4801F05AF8C7
:103440000D9A91B20C98FDF7BFFC0CA8FEF7C9FFCE
:1034500027E03846FFF7FFFC18B976A1314801F0A4
:1034600049F81EE03846FFF761FD20B977A12D48E5
:1034700001F040F803E07CA12A4801F03BF810E09D
:103480003846FFF76DFD20B97EA1264801F032F8DD
:1034900003E083A1234801F02DF802E04FF0FF354F
:1034A00000BF00BFFDF7FEFA681C10B910B0BDE800
:1034B000F0817D210B98FCF78DFE0446A4B1681CB9
:1034C00090B1641C06E014F8012B404608F1010895
:1034D00004A90A542078302802DB20783928F2DD4C
:1034E00004A8FCF79CFE80460F2E01D0032E05D1C8
:1034F0000A9801F049FD0B9801F046FD00BFD5E7A1
:10350000636D6469643A2025732C207265713A20DA
:1035100025732C207265715F6C656E3A2025640DF1
:103520000A00000000380140546970733A0953657D
:103530006E6420436D64526573700D0A00000000D4
:103540009C000020746F7069633A2025732C2074EE
:103550006F7069635F6C656E3A2025642C20706122
:10356000796C6F61643A2025732C207061796C6FDF
:1035700061645F6C656E3A2025640D0A00000000EE
:10358000546970733A0953656E64205075626C69B2
:10359000736841636B0D0A00546970733A0953658F
:1035A0006E64205075626C6973685265630D0A0021
:1035B000546970733A094D515454205075626C69C6
:1035C00073682053656E64204F4B0D0A00000000A5
:1035D000546970733A09526576205075626C69734C
:1035E000685265630D0A0000546970733A095365A7
:1035F0006E64205075626C69736852656C0D0A00C8
:10360000546970733A09526576205075626C69731B
:103610006852656C0D0A0000546970733A0953656D
:103620006E64205075626C697368436F6D700D0A2B
:1036300000000000546970733A0952657620507595
:10364000626C697368436F6D700D0A005469707322
:103650003A094D515454205375627363726962651F
:10366000204F4B0D0A000000546970733A094D5108
:103670005454205375627363726962652045727297
:103680000D0A0000546970733A094D515454205585
:103690006E537562736372696265204F4B0D0A0049
:1036A000546970733A094D51545420556E537562E4
:1036B000736372696265204572720D0A0000000032
:1036C00070B586B004460D46002600200290039097
:1036D0000490059007E054F826200DA1124800F050
:1036E00009FF701CC6B2AE42F5DB02A82B4622468B
:1036F000022100901420FFF7C7F938B9039A91B25C
:103700000298FDF761FB02A8FEF76BFE06B070BDE4
:1037100053756273637269626520546F7069633AAE
:103720002025730D0A0000000038014029B1064A27
:1037300052690243044B5A6104E0034A52698243CE
:10374000014B5A61704700000010024029B1064A3F
:10375000D2690243044BDA6104E0034AD26982432E
:10376000014BDA61704700000010024029B1064A9F
:1037700092690243044B9A6104E0034A92698243CE
:10378000014B9A61704700000010024030B50021E3
:103790000022002400232D4D6D6805F00C0121B19D
:1037A000042905D0082923D105E0294D056022E030
:1037B000274D05601FE0254D6D6805F47012234DFF
:1037C0006D6805F48034022505EB92421CB9214D49
:1037D000554305600BE01D4D6D6805F400351DB1C6
:1037E0001C4D5543056002E0194D5543056002E04C
:1037F000174D056000BF00BF144D6D6805F0F00166
:103800000909154D6B5C0568DD4045600F4D6D681D
:1038100005F4E061090A104D6B5C4568DD40856088
:103820000A4D6D6805F46051C90A0B4D6B5C456823
:10383000DD40C560054D6D6805F44041890B074DBD
:103840006B5CC568B5FBF3F5056130BD0010024047
:1038500000127A0000093D00000000201000002046
:1038600021B1028842F04002028004E002884FF653
:10387000BF731A400280704770B505460C46164665
:1038800001211048FDF72BFC032000F07DF8C4F364
:10389000074000F079F8C4F3072000F075F8E0B2B3
:1038A00000F072F804E0FF2000F06EF828706D1C44
:1038B0003000A6F101018EB2F5D101210148FDF7DA
:1038C00010FC70BD0010014000B587B00121080355
:1038D000FFF74CFF0121D420FFF748FF0120ADF88E
:1038E000040003208DF8060010208DF8070001A9C0
:1038F0002248FDF760FB2020ADF8040018208DF869
:10390000070001A91E48FDF756FB4020ADF8040052
:1039100001A91B48FDF74FFB8020ADF8040001A969
:103920001748FDF748FB01211448FDF7DAFB00209A
:10393000ADF808004FF48270ADF80A000020ADF831
:103940000C000220ADF80E000120ADF8100040027E
:10395000ADF812000820ADF814000020ADF81600F4
:103960000720ADF8180002A9064800F057F8012119
:103970000448FFF775FF07B000BD000000100140CC
:10398000000801400030014010B504464FF480505B
:10399000194908600AE018490868411E164A116072
:1039A00020B9002000F058F8C0B210BD0221134821
:1039B00000F026F80028EED02146104800F02CF840
:1039C0004FF480500C4908600AE00B490868411E1A
:1039D000094A116020B9012000F03EF8C0B2E4E7C6
:1039E0000121064800F00CF80028EED0034800F052
:1039F00010F8C0B2D9E700004C00002000300140B0
:103A00000246002013890B400BB1012000E000208A
:103A100070470146888970478181704710B5002240
:103A2000028802F441520B884C8823438C8823433C
:103A3000CC8823430C8923434C8923438C8923431B
:103A4000CC8923431A430280838B4FF2FF742340B7
:103A500083830B8A038210BD10B50446214602A061
:103A600000F086FD002010BD3C3C2D464C415348E3
:103A70002D4552524F522D3E3E2053504920B5C83D
:103A8000B4FDB3ACCAB1216572726F72436F6465E5
:103A9000203D2025640A00002DE9FC411B480088D8
:103AA000401C80B219490880C82820DB18A11D4895
:103AB00000F020FD01F096FA044601F08DFA05466B
:103AC00001F09CFA064601F093FA074633463A465F
:103AD00015A12048CDE9005400F05AFD1D491EA053
:103AE000FFF7A8FB002009490880FCF7DBFF032053
:103AF000FCF7E6FF1A4908600846006818B1084656
:103B00000068FFF7D5FBBDE8FC810000180000202D
:103B10004F6E654E65745F5075626C6973680D0A0F
:103B200000000000003801407B2273746570223A67
:103B300025642C2274656D70223A25642C226865F8
:103B4000617274223A25642C2273703032223A2535
:103B5000647D0000B40000204371546F70696300FD
:103B60001C00002010B500F001F810BD0CB50020BD
:103B7000019000903348006840F48030314908607B
:103B800000BF3048006800F4003000900198401CED
:103B90000190009818B90198B0F5A06FF1D12948AB
:103BA000006800F4003010B10120009001E0002016
:103BB00000900098012843D12348006840F010008D
:103BC000214908600846006820F0030008600846A4
:103BD000006840F0020008601A48406819494860CF
:103BE0000846406848600846406840F48060486085
:103BF0000846406820F47C1048600846406840F45D
:103C0000E81048600846006840F08070086000BF17
:103C10000C48006800F000700028F9D0094840689E
:103C200020F00300074948600846406840F0020061
:103C3000486000BF0348406800F00C000828F9D134
:103C40000CBD0000001002400020024008B5B04842
:103C50000388B0480288C8210020FDF789FDAE48DE
:103C60000068012807D1AD4878231A46C821009082
:103C70000020FEF7EDF9A8480068401C38B9A848B4
:103C800078231A46C82100900020FEF7E1F9A548E4
:103C900030231A464FF487710090BE20FEF7D8F902
:103CA000A148FCF7F6FE9A4803889A4802884FF428
:103CB0008771BE20FDF75CFD9C4830231A464FF407
:103CC00087710090BE20FEF7C3F99748FCF7E1FE2C
:103CD0008F4803888F4802884FF48771BE20FDF714
:103CE00047FD934830231A464FF487710090BE2059
:103CF000FEF7AEF98C48FCF7CCFE85480388854872
:103D000002884FF48771BE20FDF732FD89483023C9
:103D10001A464FF487710090BE20FEF799F9824849
:103D2000FCF7B7FE7A4803887A4802884FF4877117
:103D3000BE20FDF71DFD804830231A464FF48771E1
:103D40000090BE20FEF784F97748FCF7A2FE704889
:103D50000388704802884FF48771BE20FDF708FD84
:103D6000764830231A464FF487710090BE20FEF744
:103D70006FF96D48FCF78DFE654803886548028839
:103D80004FF48771BE20FDF7F3FC6D4830231A46CF
:103D90004FF487710090BE20FEF75AF96248FCF795
:103DA00078FE5B4803885B4802884FF48771BE2029
:103DB000FDF7DEFC634830231A464FF4877100900C
:103DC000BE20FEF745F95848FCF763FE50480388CB
:103DD000504802884FF48771BE20FDF7C9FC5A484D
:103DE00030231A464FF487710090BE20FEF730F959
:103DF0004D48FCF74EFE46480388464802884FF47B
:103E00008771BE20FDF7B4FC504830231A464FF4AA
:103E100087710090BE20FEF71BF94348FCF739FE7E
:103E20003B4803883B4802884FF48771BE20FDF76A
:103E30009FFC474830231A464FF487710090BE20FC
:103E4000FEF706F93848FCF724FE3148038831486C
:103E500002884FF48771BE20FDF78AFC3D4830236D
:103E60001A464FF487710090BE20FEF7F1F82E48F5
:103E7000FCF70FFE26480388264802884FF4877116
:103E8000BE20FDF775FC344830231A464FF4877185
:103E90000090BE20FEF7DCF82348FCF7FAFD1C4832
:103EA00003881C4802884FF48771BE20FDF760FC30
:103EB0002A4830231A464FF487710090BE20FEF73F
:103EC000C7F81948FCF7E5FD114803881148028836
:103ED0004FF48771BE20FDF74BFC214830231A4672
:103EE0004FF487710090BE20FEF7B2F80E48FCF741
:103EF000D0FD07480388074802884FF48771BE2029
:103F0000FDF736FC0448006840420349086008BDDC
:103F100022000020200000207400002010DF040890
:103F200008FE030890EF0208FFFF0B00980103084A
:103F3000A0130308A8250308B0370308B8490308ED
:103F4000C05B0308C86D0308D07F0308D89103083D
:103F5000E0A30308E8B50308F0C70308F8D903088D
:103F600000EC030810B51648FEF7C6F81448FEF733
:103F700003F91448FEF7E0F81348FEF7EFF9134988
:103F80001148B0F9000001F02DF911A228211420E8
:103F9000FDF70EFD0D4A28213C20FDF7CFFC0B4913
:103FA0000D48006801F01EF90CA23C211420FDF719
:103FB000FFFC064A3C210846FDF7C0FC10BD00008E
:103FC0005C0000206200002068000020C61800206D
:103FD000CEC2B6C83D00000070000020B2BDCAFDD0
:103FE0003D000000042808D14FF0E021096941F0AC
:103FF00004014FF0E022116107E04FF0E021096970
:1040000021F004014FF0E0221161704710B5134810
:10401000006840F0010011490860084640681049F6
:1040200008400E494860084600680E4908400B49A0
:1040300008600846006820F4802008600846406850
:1040400020F4FE0048604FF41F008860FFF78AFDEF
:104050004FF000600449086010BD000000100240ED
:104060000000FFF8FFFFF6FE08ED00E010B50121AB
:10407000064800F012F840B105480068401C0449A9
:1040800008600121014800F005F810BD0010004053
:1040900054000020CA430282704730B50246002017
:1040A00000230024158A05EA0103958905EA010425
:1040B00013B10CB1012000E0002030BD10B540F27A
:1040C0002551044800F050F818B12021014800F0B3
:1040D00029F810BD0038014010B540F225510E48B6
:1040E00000F042F8B0B10D480088802802D30020CB
:1040F0000A4908800848001D0088C1B207480288A4
:104100000088401C054B1880054881542021024836
:1041100000F008F810BD0000004800409E0000209C
:104120002C2D002001F40072B2F5007F00D100BFF9
:10413000CA430280704721B1828942F400528281D1
:1041400004E082894DF6FF731A408281704702466F
:104150000020B1F5007F00D100BF13880B400BB1E8
:10416000012000E00020704770B5024600240023C3
:104170000025002040F66A16B14200D100BFC1F30D
:10418000421501F01F03012606FA03F3012D02D1A7
:104190009689334006E0022D02D1168A334001E0B1
:1041A000968A33400C12012606FA04F4168834402D
:1041B00013B10CB1012000E0002070BDF0B5034642
:1041C000002400260025002040F66A17B94200D1DD
:1041D00000BF1846C1F3421401F01F06012707FA79
:1041E00006F5012C01D10C3004E0022C01D1103075
:1041F00000E014301AB107682F43076002E0076837
:10420000AF430760F0BD00002DE9F04786B00546DA
:104210000E460024A24600BFA1460027B08900B187
:1042200000BF2F462C8A4CF6FF700440F0880443F0
:104230002C82AC894EF6F3100440B08831890843D3
:10424000718908430443AC81AC8A4FF6FF400440B7
:10425000B0890443AC8201A8FFF798FA1F4887424F
:1042600002D1DDF810A001E0DDF80CA0A88900F46F
:10427000004040B10AEBCA0000EB0A103168490067
:10428000B0FBF1F807E00AEBCA0000EB0A10316856
:104290008900B0FBF1F86420B8FBF0F004012009BC
:1042A000642101FB1089A88900F4004040B132204C
:1042B00000EBC900B0FBF1F000F00700044308E098
:1042C000322000EB09106421B0FBF1F000F00F0088
:1042D00004432C8106B0BDE8F0870000003801409F
:1042E000C1F308028280704710B586B004460121F0
:1042F0000420FFF73BFA01218803FFF737FA182063
:104300008DF817004FF40070ADF8140003208DF8FD
:10431000160005A91E48FCF74EFE04208DF8170074
:104320000002ADF8140003208DF8160005A9184806
:10433000FCF741FE01940020ADF810000C20ADF810
:104340000E000020ADF80C00ADF80A00ADF8080032
:1043500001A91048FFF758FF01210E48FFF7EBFEB7
:10436000012240F225510B48FFF728FF25208DF848
:10437000000001208DF8030000208DF801000220CC
:104380008DF802006846FEF7F5FD06B010BD00008E
:10439000000801400038014010B586B004460121F4
:1043A0000420FFF7E3F901218804FFF7CFF9182073
:1043B0008DF817000420ADF8140003208DF81600C6
:1043C00005A94948FCF7F7FD04208DF817000820DF
:1043D000ADF8140003208DF8160005A94248FCF73B
:1043E000EAFD10208DF817004001ADF814000320FD
:1043F0008DF8160005A93D48FCF7DDFD18208DF865
:1044000017004FF48060ADF8140003208DF81600FB
:1044100005A93648FCF7CFFD04208DF817004002AF
:10442000ADF8140003208DF8160005A92F48FCF7FD
:10443000C2FD01940020ADF810000194ADF8100009
:104440000C20ADF80E000020ADF80C00ADF80A000D
:10445000ADF8080001A92648FFF7D6FE012124483F
:10446000FFF769FE012240F225512148FFF7A6FE21
:1044700027208DF8000001208DF8030000208DF822
:10448000010002208DF802006846FEF773FD0194DA
:104490000020ADF810000C20ADF80E000020ADF8A3
:1044A0000C00ADF80A00ADF8080001A91048FFF7AC
:1044B000ABFE01210E48FFF73EFE012240F22551DE
:1044C0000B48FFF77BFE27208DF8000001208DF8B8
:1044D000030000208DF801008DF802006846FEF709
:1044E00049FD06B010BD000000080140000C01406D
:1044F000004800400FB430B5CBB0054601AC50A821
:1045000000904FF4947101A8009B4F9A00F054F86A
:10451000002000900BE014F8011B2846FFF7E0FE96
:1045200000BF40212846FFF712FE0028F9D020786E
:104530000028F0D14BB030BC5DF814FB2DE9F04100
:1045400007460C46154600260DE014F8011B3846B8
:10455000FFF7C6FE00BF40213846FFF7F8FD0028F0
:10456000F9D0701C86B2AE42EFDBBDE8F0810000EE
:104570000FB4054B10B503A9044A029800F0F4F8F3
:1045800010BC5DF814FB0000754F0008A40000206B
:104590000FB4084B10B504A902AA039800F0E4F880
:1045A000044602A9002000F081FC204610BC5DF802
:1045B00014FB0000AD4E00087CB5491E1C46154694
:1045C000CDE90001044B6A462146284600F0CCF8AC
:1045D000009A002111707CBD974E0008004870477A
:1045E000B000002002E008C8121F08C1002AFAD15A
:1045F00070477047002001E001C1121F002AFBD163
:10460000704700002DE9FF5FDDE90220010DDDF8B4
:1046100038B0024318D044F61050A1F2FF314143A4
:104620000D140F98012820D0A5EB0B00401C5FEA69
:10463000000A4FF00004474EDFF81C91A046504698
:1046400016D5CAF1000728E00F98012443A20128DB
:1046500008D0002100980F9BC0E90021C0E9024367
:10466000BDE8FF9F6FEA0B01F4E7CBF10000DEE746
:10467000074612E0F80707D022463346404649462F
:10468000FCF7F2F880468946224633461046194622
:10469000FCF7EAF804460E467F10002FEAD1DDE968
:1046A0000201BAF1000F42464B4602DAFCF7DCF891
:1046B00001E0FBF7D8FE04460E460022284BFCF72B
:1046C0005DF903D84FF0FF30014607E00022254B8B
:1046D00020463146FBF720FEFCF738F9102409E0AC
:1046E000002C0ADB0A220023FBF790FF019B3032EB
:1046F0001A55641E50EA0102F2D1641C019AC4F1F9
:10470000110314440F9A012A03D0012208430DD14A
:104710000AE0084304D000204FF0110B0F9080E70F
:10472000A3EB0B056D1E0DE05B4504DD4FF00002B1
:1047300005F1010504E003DA4FF00002A5F10105DF
:10474000002AECD000980F99C0E90231C0E9004579
:1047500086E70000000024400000F03F3000000029
:104760000000F0430000E03F2DE9FF4F95B09B466D
:104770008946064600250FE2252877D100242746E2
:10478000F84A0121059400E0044316F8013F203B5C
:1047900001FA03F01042F7D130782A2811D06FF0D7
:1047A0002F033078A0F13002092A16D8059A44F078
:1047B000020402EB820203EB42021044761C0590D5
:1047C000EFE759F8042B0592002A03DA504244F42B
:1047D0000054059044F00204761C30782E2816D13F
:1047E00016F8010F44F004042A280DD06FF02F02B0
:1047F0003078A0F13003092B09D807EB870302EBCF
:104800004303C718761CF3E759F8047B761C30780D
:104810006C280FD006DC4C2817D068280DD06A28E9
:1048200014D104E0742810D07A280FD10DE044F49C
:1048300000140AE044F4801401E044F44014727857
:10484000824202D104F58014761C761C30786628EA
:104850000BD013DC582877D009DC002875D0452808
:10486000F6D04628F4D047281AD19DE118E06328F5
:1048700035D0642879D0652812D195E1702873D09D
:1048800008DC6728F1D069286FD06E280DD06F281A
:1048900006D1B5E073282CD0752875D0782874D04F
:1048A0005A46179990476D1C75E1C4F302500228CF
:1048B00009D003280DD0D9F8001004280DD00D60C0
:1048C00009F1040967E1D9F80010EA17C1E90052BB
:1048D000F6E7D9F800100D80F2E70D70F0E719F84F
:1048E000041B8DF8001000208DF80100EA4601201D
:1048F00003E059F804AB4FF0FF3061074FF00001BF
:1049000002D40DE008F101018846B9420FDA804572
:10491000F8DB1AF808100029F4D108E008F10101C9
:1049200088468142FADB1AF808100029F6D105986A
:104930005B46A0EB080721463846179A00F094FA28
:10494000284400EB080507E04DE029E10DE01AF8E6
:10495000010B5A4617999047B8F10108F7D25B4608
:1049600021463846179A13E142E00A220092C4F326
:1049700002524FF0000A022A08D059F804CB032A49
:104980004FEAEC710AD00DE029E02AE009F10701B5
:1049900021F00702F2E802C1914609E00FFA8CFC0F
:1049A0004FEAEC71042A03D14FFA8CFC4FEAEC7108
:1049B000002907DA0A460021DCF1000C61EB020154
:1049C0002D2202E0220504D52B228DF8042001229D
:1049D00003E0E20701D02022F7E7904659E00A21E0
:1049E00002E010220DE010214FF0000A00910BE0D0
:1049F00010224FF0000A44F004040827009203E05C
:104A000008224FF0000A0092C4F30252022A05D095
:104A100059F804CB0021032A08D009E009F1070165
:104A200021F00702F2E802C1914605E01FFA8CFC72
:104A3000042A01D10CF0FF0C4FF00008220728D502
:104A4000702806D0009B83F0100353EA0A0305D0B8
:104A50000EE040228DF80420012208E05CEA010209
:104A600006D030228DF804208DF8050002229046F1
:104A7000009B83F0080353EA0A030AD15CEA0102AF
:104A800001D1620705D530228DF804204FF00108CE
:104A90007F1E582804D034A003900EA802900DE089
:104AA00036A0F9E753466046009AFBF7AFFD84460F
:104AB0000398825C0298401E029002705CEA01003A
:104AC000F0D1029806A9081A00F1200A600702D561
:104AD00024F4803400E00127574502DDA7EB0A00EB
:104AE00000E0002000EB0A01009005984144401AC4
:104AF0000590E00306D45B462146179A059800F01E
:104B0000B3F90544002706E001A85A46C05D17998D
:104B100090476D1C7F1C4745F6DBE0030CD55B46D8
:104B20002146179A059800F09FF9054404E03020CB
:104B30005A46179990476D1C0099481E009000290D
:104B4000F5DC08E0029802995A460078491C029167
:104B5000179990476D1CBAF10001AAF1010AF1DC26
:104B600065E1000009280100303132333435363731
:104B700038396162636465660000000030313233A9
:104B80003435363738394142434445460000000049
:104B900000F058F90544761C307800287FF4ECAD1D
:104BA00019B02846BDE8F08F620700D4062709F146
:104BB000070222F0070CFCE80223E14603F000485C
:104BC0005FEA080C02D00FF2702C0DE05FEA045C83
:104BD00002D50FF2682C07E05FEAC47C02D00FF226
:104BE000602C01E0AFF2700C4FF0FF3823F000436F
:104BF000CDF850C065280CD006DC452809D04628E1
:104C00001DD047283DD13DE0662818D067287ED1C9
:104C100038E00021112F01DB112000E0781CCDE9E4
:104C2000000106A90EA8FFF7EDFCDDE90F010E9AC1
:104C300003910021009207F1010A04914DE04FF029
:104C400000400097CDE9011006A90EA8FFF7DAFC95
:104C5000DDE90F0203920E9B11990022DDF80CA0F2
:104C60000093049211B9791C00EB010AB7EB0A001A
:104C700004D4C0F1FF3007F1010A0490AAEB070049
:104C8000019044E0012F00DA01270021112F01DDFE
:104C9000112000E03846CDE9000106A90EA8FFF773
:104CA000B1FCDDE90F010E9A0391002104910092FD
:104CB000BA4621070CD40399514500DA8A46BAF165
:104CC000010F05DD009AAAF10101515C302908D0DD
:104CD000B84202DA10F1040F06DA0121CDE9011021
:104CE00015E0AAF10101E9E7002805DC0499014477
:104CF0000491AAEB000102E0411C514500DD8A4607
:104D00000499401A401C01904FF000400290200787
:104D100004D40198504501DBCDF8048000208DF8C3
:104D20004F0002980DF14F07B0F1004F25D02B2016
:104D30000E9002984FF0020800280CDA40420290D0
:104D40002D200E9007E00A210298FBF749FC303134
:104D5000029007F8011DB8F10001A8F10108F2DC8A
:104D600002980028EFD1791E0E980870307800F074
:104D7000200040F0450007F8020D12A8C01B00F10A
:104D800007081498007800B1012000EB0A0101988F
:104D900001EBE07105984144401A401E0590E00384
:104DA00006D45B462146179A059800F05DF8054445
:104DB0001498007818B15A46179990476D1CE00373
:104DC00024D55B462146179A059800F04DF8054416
:104DD0001CE00498002807DBDDE90301884203DDBD
:104DE0000098405C179901E0179930205A46904787
:104DF000049805F10105401C04900198401E0190A3
:104E000004D12E205A46179990476D1CBAF1000123
:104E1000AAF1010ADDDC05E017F8010B5A461799E3
:104E200090476D1CB8F10001A8F10108F4DC5B4665
:104E30002146179A0598ABE62D0000002B000000D4
:104E4000200000002DE9F041044600251E461746CB
:104E5000880404D405E039462020B0476D1C641E48
:104E6000F9D52846BDE8F0812DE9F041044600253A
:104E70001E469046C80301D5302700E0202788044D
:104E800004D505E041463846B0476D1C641EF9D58F
:104E90002846BDE8F0814A68002A06D00A68531CFB
:104EA0000B6010704868401E486070470A68531CC9
:104EB0000B6010707047000010B56FF00400FFF732
:104EC00091F809200349087042F22830024908800D
:104ED00010BD000050000020520000200146114A81
:104EE00012884A434FF0E0235A6100229A611A4621
:104EF000126942F001021A6100BF4FF0E02210690E
:104F000000F001021AB100F48032002AF5D04FF00F
:104F1000E022126922F001024FF0E0231A61002220
:104F20009A617047520000200146114A12784A43A4
:104F30004FF0E0235A6100229A611A46126942F04A
:104F400001021A6100BF4FF0E022106900F0010277
:104F50001AB100F48032002AF5D04FF0E022126935
:104F600022F001024FF0E0231A6100229A6170479B
:104F70005000002038B504468DF800006946032033
:104F8000ABBE204638BD000010B5002821D0114B23
:104F90000022001F196803E0814203D80A464968CD
:104FA0000029F9D152B11368841A9C4204D10068D7
:104FB00018441060104602E0506000E0186039B1FB
:104FC00002680B1A934203D10B681A4402604968C5
:104FD000416010BDA8000020014800687047000033
:104FE0008400002001480068704700007C00002019
:104FF0000148006870470000700000200148B0F9C7
:10500000000070476800002010B520200A490860A1
:1050100000F014F84FF480500749091F086000F0B1
:105020000DF84FF480500449086000F007F8202084
:105030000149091F086010BD140C0140002001E067
:10504000411CC8B20A28FBDB7047000008B50121EB
:105050000820FEF78BFB4FF48150ADF800000320D1
:105060008DF8020014208DF8030069460248FBF712
:10507000A2FF00F087F808BD000C014010B5202009
:1050800008490860FFF7DAFF4FF4805005490860CF
:10509000FFF7D4FF4FF480500249091D0860FFF765
:1050A000CDFF10BD100C014070B505460024002650
:1050B00018E06006040E4FF480500F490860FFF7B7
:1050C000BDFF0D480838006800F0200008B1601CE2
:1050D000C4B24FF480500849091D0860FFF7AEFFC5
:1050E000701CC6B2082EE4DB15B9FFF7C7FF01E05C
:1050F000FFF78AFF204670BD100C014070B50446D2
:10510000002522E004F0800018B12020104908603A
:1051100003E020200E49091D0860FFF78FFF4FF4C0
:1051200080500B490860FFF789FF4FF48050084911
:10513000091D0860072D02D12020091F08606006A4
:10514000040EFFF77BFF681CC5B2082DDADB70BDCB
:10515000100C014010B5202009490860C00108600A
:10516000FFF76CFF20200649091D0860FFF766FF66
:105170004FF480500249091D0860FFF75FFF10BD22
:10518000100C014010B5202005490860C001091F1E
:105190000860FFF753FF20200149091F086010BD78
:1051A000140C014010B520200D490860FFF746FFA0
:1051B0004FF480500A490860FFF740FF084808385C
:1051C000006800F0200008B1012400E000244FF442
:1051D00080500349091D0860FFF730FF204610BDCD
:1051E000100C0140FCB502460B46002019460DE0AC
:1051F0000A2592FBF5F605FB162492FBF5F204F165
:105200003005EFB20546401C0DF80570002AEFDCB2
:10521000401E04E01DF8005001F8015B401E00280C
:10522000F8DA00250D70FCBDFCF7FEFEFBF792FFDF
:1052300003E001210C48FEF743FAFDF7DDFE0028EC
:10524000F7D10FE009480088282190FBF1F201FB1B
:10525000120028B9FBF77AFFFBF774FFFEF7F6FCA4
:10526000FEF71AFCEEE700001400002018000020F2
:10527000F0B50B30154D20F007010024144A0FE063
:1052800003688B420BD38B4205D95E1A43184768DB
:10529000C3E9006700E04368136002C004E0021D38
:1052A00010680028ECD12046002802D1286808B1F7
:1052B0000020F0BD064A07481060074A121A22F083
:1052C0000702C0E9002401202860D7E7AC000020D5
:1052D000A8000020B42D0020B02F002070B5044697
:1052E000FCF7B6F9AE20FCF77FF9FCF7FDF900B149
:1052F00019E02046FCF778F9FCF7F6F900B112E066
:10530000FCF7A6F9AF20FCF76FF9FCF7EDF900B157
:1053100009E00020FCF730F90546FCF705F9FCF739
:10532000BDF9284670BDFCF7B9F90020FAE770B561
:1053300005460C46FCF78CF9AE20FCF755F9FCF756
:10534000D3F900B111E02846FCF74EF9FCF7CCF98F
:1053500000B10AE02046FCF747F9FCF7C5F900B1B7
:1053600003E0FCF79BF9012070BDFCF797F90020E2
:10537000FAE770B505460C460020FFF7AFFF0120A5
:10538000FFF7ACFFFCF764F9AE20FCF72DF9FCF752
:10539000ABF900B12AE02846FCF726F9FCF7A4F99E
:1053A00000B123E0FCF754F9AF20FCF71DF9FCF73E
:1053B0009BF900B11AE00120FCF7DEF82070012013
:1053C000FCF7DAF860700120FCF7D6F8A070012035
:1053D000FCF7D2F8E0700120FCF7CEF82071002035
:1053E000FCF7CAF86071FCF759F900BFFCF756F9F1
:1053F00070BD000008B501210820FEF7B7F90220B2
:10540000ADF8000048208DF8030069461948FBF705
:10541000D2FDFCF769F800F02FF8C0210220FFF759
:1054200086FF00210320FFF782FF00210420FFF701
:105430007EFF00210520FFF77AFF00210620FFF7FD
:1054400076FF0F210820FFF772FF03210920FFF7E5
:105450006EFF27210A20FFF76AFF24210C20FFF7A7
:1054600066FF24210D20FFF762FF7F211020FFF748
:105470005EFF08BD000C014010B540210920FFF778
:1054800056FF40210920FFF752FF10BD2DE9F847D4
:1054900005460C4616461F46DDE90A9ADDF82480CB
:1054A0003B46324621462846CDF8008000F090FA6F
:1054B0004B4632462146284600F0C7FA2068504540
:1054C00001DA206800E050462060BDE8F88700005F
:1054D0002DE9FF4FC6B0884699460020459000242C
:1054E00006E0469850F82410459808444590641CFE
:1054F0004445F6DB4598B0FBF8F04590002408E001
:10550000469850F824104598081AFE4941F824009E
:10551000641C4445F4DB002417E0FA4850F82410DA
:105520000246601C52F820000144A01C52F82000E2
:105530000144E01C52F820000F183846F91707EB19
:105540009171891042F82410641CB4F5F87FE4DBF3
:1055500000240AE0EB49601C51F8200051F82410A7
:10556000401AE94941F82400641CB4F5F77FF1DDE5
:1055700000240EE0E44951F824200B46611C53F846
:105580002110501800EBD07149101A4642F824102F
:10559000641CB4F5F77FEDDB00251BE00020439091
:1055A0002C460BE0D84850F82410601BD74A32F83C
:1055B0001020439801FB12004390641C681D844234
:1055C000F0DB40F27A41439890FBF1F0CE4941F88C
:1055D00025006D1CB5F5F47FE0DD0020419000242E
:1055E00010E0C94850F82400002803DDC64850F8F0
:1055F000240003E0C44850F8240040424199084484
:105600004190641CB4F5F77FEBDD40F2EF11419857
:1056100090FBF1F0419005210822419840F2EF13F0
:10562000CDE901210090B84A40A912A8FFF72EFF4A
:10563000002011904098022821DB01240BE012A8E1
:1056400050F82410601E12AA52F82000091A11986E
:1056500008441190641C40988442F0DB4098401E3E
:10566000119991FBF0F0119041F27071119891FB3A
:10567000F0F15498016001215598017005E0A449AA
:1056800054980160002155980170002407E012A889
:1056900050F82400801C30A941F82400641C409874
:1056A0008442F4DB00240CE0469850F8240095492D
:1056B00041F82400489850F82400964941F8240005
:1056C000641C4445F0DB0020429000242DE00120C2
:1056D000449030A850F824A04FF080703F900AF119
:1056E0000500B0F5F77F1FDC0A3800281CDD0546F1
:1056F00011E0844850F825103F9881420ADA449816
:1057000008B1002044907F4850F825003F9021A820
:1057100040F824506D1C0AF105008542E9DB4498ED
:1057200010B94298401C4290641C40988442CEDBE1
:105730004298022808DA7648C9F8000000215398F8
:1057400001704AB0BDE8F08F00242EE06D4951F899
:1057500024200B46611C53F821100A44A11C53F865
:1057600021100A44E11C53F821105018C11700EB16
:10577000917189101A4642F82410664951F8242084
:105780000B46611C53F821100A44A11C53F8211048
:105790000A44E11C53F821105018C11700EB917115
:1057A00089101A4642F82410641CB4F5F87FCDDB4A
:1057B000002004900026002404E0002005A941F800
:1057C0002400641C052CF8DB00240DE021A850F80F
:1057D0002400B0F5FA7F06DD4D48C9F8000000212D
:1057E00053980170ADE7641C42988442EEDB0024BC
:1057F000AFE04FF07F400D900C9021A9601C51F854
:10580000200051F82410401A0A2879DD21A850F808
:10581000245016E03B4850F825100C98814204DDD6
:10582000384850F825000C900A953A4850F8251051
:105830000D98814204DD374850F825000D900B95F6
:105840006D1C21A9601C51F82000A842E2DC601CFC
:1058500051F820002F4951F8200021A951F82410B7
:105860002C4A52F82110401A21A951F824200B99F2
:10587000891A4843109021A9601C51F8200051F862
:105880002410411A109890FBF1F021A951F824102E
:10589000204A52F821100844109011460B9851F8F4
:1058A00020101098081A109021A9601C51F82000AF
:1058B000144951F8200021A951F82410114A52F836
:1058C0002110401A21A951F824200A99891A484325
:1058D0000F9021A9601C51F8200051F82410411AA2
:1058E0000F9890FBF1F021A951F82410054A52F8C5
:1058F000211008440F9011460B9851F820100BE02E
:1059000026E00000F40800203401002092960008F0
:1059100019FCFFFFC41000200F98081A0F900C9973
:1059200010984843C01103900D990F984843C71130
:10593000002F0DDD052E0BDA039848B1039800EB1C
:105940008000800090FBF7F005A941F82600761C46
:10595000641C4298401EA0423FF74BAF314605A859
:1059600000F0ACF8304606EBD0714FEA610BBBF1AA
:10597000010F0CDDABF1010105AA52F8211052F81C
:105980002B20881800EBD0714910049103E005A882
:1059900050F82B000490049802280DDD0498B828D4
:1059A0000ADA09490498085C0E900E98C9F80000BC
:1059B00001215398017005E00448C9F80000002156
:1059C0005398017000BFBCE6D096000819FCFFFF99
:1059D000F0B505461C46059E012000270F6030E00B
:1059E00052F82070B7422BDD52F820C0471E52F803
:1059F0002770BC4524DD012300E05B1CC718A742CB
:105A000007DA52F8207000EB030C52F82CC06745FF
:105A1000F3D052F8207000EB030C52F82CC067450D
:105A20000CDD0F680F2F09DAD1F800C00CF1010767
:105A30000F6045F82C005F1C384402E0184400E079
:105A4000401C671E8742CBDCF0BD2DE9F04F0546B8
:105A50000C469246984629465046226800F049F87E
:105A60004FF0FF3621E0D4F800B0701C2060771CA6
:105A700018E055F82710701C10B94FF0FF3001E006
:105A800055F82600A1EB0009C14503DCC8F1000070
:105A9000814506DA55F827102268501C206045F829
:105AA00022107F1C5F45E4DB761C2068B042DADC04
:105AB0002846216800F002F8BDE8F08F30B50C46AA
:105AC000012213E050F82230114605E04D1E50F837
:105AD000255040F82150491E002904DD4D1E50F884
